{
  "contractName": "MultiSig",
  "abi": [
    {
      "inputs": [
        {
          "internalType": "address[]",
          "name": "_approvers",
          "type": "address[]"
        },
        {
          "internalType": "uint256",
          "name": "_quorum",
          "type": "uint256"
        }
      ],
      "stateMutability": "payable",
      "type": "constructor",
      "payable": true
    },
    {
      "inputs": [
        {
          "internalType": "address",
          "name": "",
          "type": "address"
        },
        {
          "internalType": "uint256",
          "name": "",
          "type": "uint256"
        }
      ],
      "name": "approvals",
      "outputs": [
        {
          "internalType": "bool",
          "name": "",
          "type": "bool"
        }
      ],
      "stateMutability": "view",
      "type": "function",
      "constant": true
    },
    {
      "inputs": [
        {
          "internalType": "uint256",
          "name": "",
          "type": "uint256"
        }
      ],
      "name": "approvers",
      "outputs": [
        {
          "internalType": "address",
          "name": "",
          "type": "address"
        }
      ],
      "stateMutability": "view",
      "type": "function",
      "constant": true
    },
    {
      "inputs": [],
      "name": "nextId",
      "outputs": [
        {
          "internalType": "uint256",
          "name": "",
          "type": "uint256"
        }
      ],
      "stateMutability": "view",
      "type": "function",
      "constant": true
    },
    {
      "inputs": [],
      "name": "quorum",
      "outputs": [
        {
          "internalType": "uint256",
          "name": "",
          "type": "uint256"
        }
      ],
      "stateMutability": "view",
      "type": "function",
      "constant": true
    },
    {
      "inputs": [
        {
          "internalType": "uint256",
          "name": "",
          "type": "uint256"
        }
      ],
      "name": "transfers",
      "outputs": [
        {
          "internalType": "uint256",
          "name": "id",
          "type": "uint256"
        },
        {
          "internalType": "uint256",
          "name": "amount",
          "type": "uint256"
        },
        {
          "internalType": "address payable",
          "name": "to",
          "type": "address"
        },
        {
          "internalType": "uint256",
          "name": "approvals",
          "type": "uint256"
        },
        {
          "internalType": "bool",
          "name": "sent",
          "type": "bool"
        }
      ],
      "stateMutability": "view",
      "type": "function",
      "constant": true
    },
    {
      "inputs": [
        {
          "internalType": "uint256",
          "name": "_amount",
          "type": "uint256"
        },
        {
          "internalType": "address payable",
          "name": "_to",
          "type": "address"
        }
      ],
      "name": "createTransfer",
      "outputs": [],
      "stateMutability": "nonpayable",
      "type": "function"
    },
    {
      "inputs": [
        {
          "internalType": "uint256",
          "name": "_id",
          "type": "uint256"
        }
      ],
      "name": "sendTransfer",
      "outputs": [],
      "stateMutability": "nonpayable",
      "type": "function"
    }
  ],
  "bytecode": "0x608060405260405162000f5638038062000f56833981810160405281019062000029919062000328565b81600090805190602001906200004192919062000051565b508060018190555050506200038e565b828054828255906000526020600020908101928215620000cd579160200282015b82811115620000cc5782518260006101000a81548173ffffffffffffffffffffffffffffffffffffffff021916908373ffffffffffffffffffffffffffffffffffffffff1602179055509160200191906001019062000072565b5b509050620000dc9190620000e0565b5090565b5b80821115620000fb576000816000905550600101620000e1565b5090565b6000604051905090565b600080fd5b600080fd5b600080fd5b6000601f19601f8301169050919050565b7f4e487b7100000000000000000000000000000000000000000000000000000000600052604160045260246000fd5b620001638262000118565b810181811067ffffffffffffffff8211171562000185576200018462000129565b5b80604052505050565b60006200019a620000ff565b9050620001a8828262000158565b919050565b600067ffffffffffffffff821115620001cb57620001ca62000129565b5b602082029050602081019050919050565b600080fd5b600073ffffffffffffffffffffffffffffffffffffffff82169050919050565b60006200020e82620001e1565b9050919050565b620002208162000201565b81146200022c57600080fd5b50565b600081519050620002408162000215565b92915050565b60006200025d6200025784620001ad565b6200018e565b90508083825260208201905060208402830185811115620002835762000282620001dc565b5b835b81811015620002b057806200029b88826200022f565b84526020840193505060208101905062000285565b5050509392505050565b600082601f830112620002d257620002d162000113565b5b8151620002e484826020860162000246565b91505092915050565b6000819050919050565b6200030281620002ed565b81146200030e57600080fd5b50565b6000815190506200032281620002f7565b92915050565b6000806040838503121562000342576200034162000109565b5b600083015167ffffffffffffffff8111156200036357620003626200010e565b5b6200037185828601620002ba565b9250506020620003848582860162000311565b9150509250929050565b610bb8806200039e6000396000f3fe608060405234801561001057600080fd5b506004361061007d5760003560e01c80639377d7111161005b5780639377d711146100da578063d1c68d1e1461010e578063d3650fb81461012a578063ffabc6731461015a5761007d565b80631703a018146100825780634c12fa47146100a057806361b8ce8c146100bc575b600080fd5b61008a61018a565b604051610097919061079c565b60405180910390f35b6100ba60048036038101906100b59190610846565b610190565b005b6100c461036f565b6040516100d1919061079c565b60405180910390f35b6100f460048036038101906100ef9190610886565b610375565b6040516101059594939291906108dd565b60405180910390f35b61012860048036038101906101239190610886565b6103d8565b005b610144600480360381019061013f9190610886565b610715565b6040516101519190610951565b60405180910390f35b610174600480360381019061016f9190610998565b610754565b60405161018191906109d8565b60405180910390f35b60015481565b6000805b60008054905081101561022a573373ffffffffffffffffffffffffffffffffffffffff16600082815481106101cc576101cb6109f3565b5b9060005260206000200160009054906101000a900473ffffffffffffffffffffffffffffffffffffffff1673ffffffffffffffffffffffffffffffffffffffff160361021757600191505b808061022290610a51565b915050610194565b506001151581151514610272576040517f08c379a000000000000000000000000000000000000000000000000000000000815260040161026990610af6565b60405180910390fd5b6040518060a0016040528060035481526020018481526020018373ffffffffffffffffffffffffffffffffffffffff1681526020016000815260200160001515815250600260006003548152602001908152602001600020600082015181600001556020820151816001015560408201518160020160006101000a81548173ffffffffffffffffffffffffffffffffffffffff021916908373ffffffffffffffffffffffffffffffffffffffff1602179055506060820151816003015560808201518160040160006101000a81548160ff0219169083151502179055509050506003600081548092919061036590610a51565b9190505550505050565b60035481565b60026020528060005260406000206000915090508060000154908060010154908060020160009054906101000a900473ffffffffffffffffffffffffffffffffffffffff16908060030154908060040160009054906101000a900460ff16905085565b6000805b600080549050811015610472573373ffffffffffffffffffffffffffffffffffffffff1660008281548110610414576104136109f3565b5b9060005260206000200160009054906101000a900473ffffffffffffffffffffffffffffffffffffffff1673ffffffffffffffffffffffffffffffffffffffff160361045f57600191505b808061046a90610a51565b9150506103dc565b5060011515811515146104ba576040517f08c379a00000000000000000000000000000000000000000000000000000000081526004016104b190610af6565b60405180910390fd5b600015156002600084815260200190815260200160002060040160009054906101000a900460ff16151514610524576040517f08c379a000000000000000000000000000000000000000000000000000000000815260040161051b90610b62565b60405180910390fd5b60001515600460003373ffffffffffffffffffffffffffffffffffffffff1673ffffffffffffffffffffffffffffffffffffffff168152602001908152602001600020600084815260200190815260200160002060009054906101000a900460ff16151503610623576001600460003373ffffffffffffffffffffffffffffffffffffffff1673ffffffffffffffffffffffffffffffffffffffff168152602001908152602001600020600084815260200190815260200160002060006101000a81548160ff02191690831515021790555060026000838152602001908152602001600020600301600081548092919061061d90610a51565b91905055505b6001546002600084815260200190815260200160002060030154106107115760016002600084815260200190815260200160002060040160006101000a81548160ff02191690831515021790555060006002600084815260200190815260200160002060020160009054906101000a900473ffffffffffffffffffffffffffffffffffffffff1690506000600260008581526020019081526020016000206001015490508173ffffffffffffffffffffffffffffffffffffffff166108fc829081150290604051600060405180830381858888f1935050505015801561070d573d6000803e3d6000fd5b5050505b5050565b6000818154811061072557600080fd5b906000526020600020016000915054906101000a900473ffffffffffffffffffffffffffffffffffffffff1681565b60046020528160005260406000206020528060005260406000206000915091509054906101000a900460ff1681565b6000819050919050565b61079681610783565b82525050565b60006020820190506107b1600083018461078d565b92915050565b600080fd5b6107c581610783565b81146107d057600080fd5b50565b6000813590506107e2816107bc565b92915050565b600073ffffffffffffffffffffffffffffffffffffffff82169050919050565b6000610813826107e8565b9050919050565b61082381610808565b811461082e57600080fd5b50565b6000813590506108408161081a565b92915050565b6000806040838503121561085d5761085c6107b7565b5b600061086b858286016107d3565b925050602061087c85828601610831565b9150509250929050565b60006020828403121561089c5761089b6107b7565b5b60006108aa848285016107d3565b91505092915050565b6108bc81610808565b82525050565b60008115159050919050565b6108d7816108c2565b82525050565b600060a0820190506108f2600083018861078d565b6108ff602083018761078d565b61090c60408301866108b3565b610919606083018561078d565b61092660808301846108ce565b9695505050505050565b600061093b826107e8565b9050919050565b61094b81610930565b82525050565b60006020820190506109666000830184610942565b92915050565b61097581610930565b811461098057600080fd5b50565b6000813590506109928161096c565b92915050565b600080604083850312156109af576109ae6107b7565b5b60006109bd85828601610983565b92505060206109ce858286016107d3565b9150509250929050565b60006020820190506109ed60008301846108ce565b92915050565b7f4e487b7100000000000000000000000000000000000000000000000000000000600052603260045260246000fd5b7f4e487b7100000000000000000000000000000000000000000000000000000000600052601160045260246000fd5b6000610a5c82610783565b91507fffffffffffffffffffffffffffffffffffffffffffffffffffffffffffffffff8203610a8e57610a8d610a22565b5b600182019050919050565b600082825260208201905092915050565b7f6f6e6c7920617070726f76657220616c6c6f7765640000000000000000000000600082015250565b6000610ae0601583610a99565b9150610aeb82610aaa565b602082019050919050565b60006020820190508181036000830152610b0f81610ad3565b9050919050565b7f7472616e736665722068617320616c72656164792074616b656e000000000000600082015250565b6000610b4c601a83610a99565b9150610b5782610b16565b602082019050919050565b60006020820190508181036000830152610b7b81610b3f565b905091905056fea26469706673582212206220a2519b932e3e8831275effdafa6aacb8aa8e3a47386e73ae4a0c5892fb7164736f6c634300080d0033",
  "immutableReferences": {},
  "source": "// SPDX-License-Identifier: MIT\r\npragma solidity >0.8.0;\r\n\r\ncontract MultiSig {\r\n    address[] public approvers;\r\n    uint public quorum;\r\n\r\n    struct Transfers {\r\n        uint id;\r\n        uint amount;\r\n        address payable to;\r\n        uint approvals;\r\n        bool sent;\r\n    }\r\n    /**\r\n     * @dev these mappings aren't public we made it just for test!\r\n     */\r\n    mapping(uint => Transfers) public transfers;\r\n    uint public nextId;\r\n    mapping(address => mapping(uint => bool)) public approvals;\r\n\r\n    // @test: approvals[msg.sender][1] = true/false;\r\n\r\n    constructor(address[] memory _approvers, uint _quorum) payable {\r\n        approvers = _approvers;\r\n        quorum = _quorum;\r\n    }\r\n\r\n    function createTransfer(\r\n        uint _amount,\r\n        address payable _to\r\n    ) external only_Approver {\r\n        transfers[nextId] = Transfers(nextId, _amount, _to, 0, false);\r\n        nextId++;\r\n    }\r\n\r\n    function sendTransfer(uint _id) external only_Approver {\r\n        require(transfers[_id].sent == false, \"transfer has already taken\");\r\n\r\n        if (approvals[msg.sender][_id] == false) {\r\n            approvals[msg.sender][_id] = true;\r\n            transfers[_id].approvals++;\r\n        }\r\n\r\n        // Check if quorum is reached and execute transfer\r\n        if (transfers[_id].approvals >= quorum) {\r\n            transfers[_id].sent = true;\r\n            address payable to = transfers[_id].to;\r\n            uint amount = transfers[_id].amount;\r\n            to.transfer(amount);\r\n        }\r\n    }\r\n\r\n    modifier only_Approver() {\r\n        bool allowed = false;\r\n        for (uint i = 0; i < approvers.length; i++) {\r\n            if (approvers[i] == msg.sender) {\r\n                allowed = true;\r\n            }\r\n        }\r\n        require(allowed == true, \"only approver allowed\");\r\n        _;\r\n    }\r\n}\r\n",
  "sourcePath": "E:\\Coding\\Web3\\Web3 master\\Multi_Sig\\contracts\\Multi_Sig.sol",
  "compiler": {
    "name": "solc",
    "version": "0.8.13+commit.abaa5c0e.Emscripten.clang"
  },
  "schemaVersion": "3.4.16",
  "updatedAt": "2024-12-19T17:02:26.056Z",
  "networkType": "ethereum",
  "devdoc": {
    "kind": "dev",
    "methods": {},
    "stateVariables": {
      "transfers": {
        "details": "these mappings aren't public we made it just for test!"
      }
    },
    "version": 1
  },
  "userdoc": {
    "kind": "user",
    "methods": {},
    "version": 1
  }
}